:020000040800F2
:1000000000500020F52C0008A92C0008AD2C000899
:10001000B12C0008B52C0008B92C00080000000025
:10002000000000000000000000000000BD2C0008DF
:10003000C12C000800000000C52C0008C92C0008D5
:100040003D2D00083D2D00083D2D00083D2D0008E8
:100050003D2D00083D2D00083D2D00083D2D0008D8
:100060003D2D00083D2D00083D2D00083D2D0008C8
:100070003D2D00083D2D00083D2D00083D2D0008B8
:100080003D2D00083D2D00083D2D00083D2D0008A8
:100090003D2D00083D2D00083D2D00083D2D000898
:1000A0003D2D00083D2D00083D2D00083D2D000888
:1000B0003D2D00083D2D00083D2D00083D2D000878
:1000C0003D2D00083D2D00083D2D00083D2D000868
:1000D0003D2D0008CD2C0008D92C0008E52C000887
:1000E0003D2D00083D2D00083D2D000800000000BA
:1000F0000000000000000000000000000000000000
:0C01000000000000000000005FF808F1A3
:10010C0010B5054C237833B9044B13B10448AFF345
:10011C0000800123237010BD3C040020000000006F
:10012C009448000808B5034B1BB103490348AFF3CF
:10013C00008008BD00000000400400209448000826
:10014C00014B1860704700BF5C0400202DE9F04F94
:10015C00F34C83B000224FF48071204603F034F846
:10016C00642002F02FFE01224FF48071204603F030
:10017C002BF8322002F026FE0022CF231646012552
:10018C004FF064084FF0C10B4FF0300AE54F20469A
:10019C0080218DF8073003F017F8324620464FF4D3
:1001AC00007103F011F843462A460DF10701386837
:1001BC0003F0B4FB2A462046802103F005F83246B2
:1001CC00204680218DF8076002F0FEFF2A4620466B
:1001DC004FF4007102F0F8FF43462A460DF1070177
:1001EC00386803F09BFB2A462046802102F0ECFF86
:1001FC003246204680218DF807B002F0E5FF2A46F2
:10020C0020464FF4007102F0DFFF43462A460DF101
:10021C000701386803F082FB2A462046802102F051
:10022C00D3FF3246204680218DF807A002F0CCFF88
:10023C002A4620464FF4007102F0C6FF43462A4678
:10024C000DF10701386803F069FB2A46204680212E
:10025C0002F0BAFFED232046324680218DF807309C
:10026C0002F0B2FF324620464FF4007102F0ACFFB0
:10027C0043462A460DF10701386803F04FFB2A4626
:10028C002046802102F0A0FF3246204680218DF8C6
:10029C00078002F099FF2A4620464FF4007102F0C5
:1002AC0093FF43462A460DF10701386803F036FBED
:1002BC002A462046802102F087FF0323324620463F
:1002CC0080218DF8073002F07FFF2A4620464FF43C
:1002DC00007102F079FF43462A460DF10701386898
:1002EC0003F01CFB2A462046802102F06DFF1223EE
:1002FC003246204680218DF8073002F065FF2A46F1
:10030C0020464FF4007102F05FFF43462A460DF180
:10031C000701386803F002FB2A462046802102F0D0
:10032C0053FF81233246204680218DF8073002F09E
:10033C004BFF2A4620464FF4007102F045FF43461E
:10034C002A460DF10701386803F0E8FA2A462046E0
:10035C00802102F039FFE8232046324680218DF8B7
:10036C00073002F031FF324620464FF4007102F0A4
:10037C002BFF43462A460DF10701386803F0CEFAED
:10038C002A462046802102F01FFF85233246204654
:10039C0080218DF8073002F017FF2A4620464FF4D3
:1003AC00007102F011FF43462A460DF1070138682F
:1003BC0003F0B4FA2A462046802102F005FF1023F0
:1003CC003246204680218DF8073002F0FDFE2A4689
:1003DC0020464FF4007102F0F7FE43462A460DF119
:1003EC000701386803F09AFA2A462046802102F069
:1003FC00EBFE7A233246204680218DF8073002F03E
:10040C00E3FE2A4620464FF4007102F0DDFE43461F
:10041C002A460DF10701386803F080FA2A46204677
:10042C00802102F0D1FECB232046324680218DF86C
:10043C00073002F0C9FE324620464FF4007102F03C
:10044C00C3FE43462A460DF10701386803F066FAED
:10045C002A462046802102F0B7FE39233246204638
:10046C0080218DF8073002F0AFFE2A4620464FF46B
:10047C00007102F0A9FE43462A460DF107013868C7
:10048C0003F04CFA2A462046802102F09DFE2C23D4
:10049C003246204680218DF8073002F095FE2A4620
:1004AC0020464FF4007102F08FFE43462A460DF1B0
:1004BC000701386803F032FA2A462046802102F000
:1004CC0083FE3246204680218DF8076002F07CFEC8
:1004DC002A4620464FF4007102F076FE43462A4627
:1004EC000DF10701386803F019FA2A4620468021DD
:1004FC0002F06AFE34233246204680218DF8073004
:10050C0002F062FE2A4620464FF4007102F05CFEB7
:10051C0043462A460DF10701386803F0FFF903E062
:10052C00000C01405C0400202A462046802102F089
:10053C004BFE02233246204680218DF8073002F014
:10054C0043FE2A4620464FF4007102F03DFE43461E
:10055C002A460DF10701386803F0E0F92A462046D7
:10056C00802102F031FEF7232046324680218DF89F
:10057C00073002F029FE324620464FF4007102F09B
:10058C0023FE43462A460DF10701386803F0C6F9ED
:10059C002A462046802102F017FE202332462046B0
:1005AC0080218DF8073002F00FFE2A4620464FF4CA
:1005BC00007102F009FE43462A460DF10701386826
:1005CC0003F0ACF92A462046802102F0FDFDEA2317
:1005DC002046324680218DF8073002F0F5FD324678
:1005EC0020464FF4007102F0EFFD43462A460DF110
:1005FC000701386803F092F92A462046802102F060
:10060C00E3FD3246204680218DF8076002F0DCFDC8
:10061C002A4620464FF4007102F0D6FD43462A4686
:10062C000DF10701386803F079F92A46204680213C
:10063C0002F0CAFD3246204680218DF8076002F098
:10064C00C3FD2A4620464FF4007102F0BDFD43461F
:10065C002A460DF10701386803F060F92A46204656
:10066C00802102F0B1FDC0232046324680218DF856
:10067C00073002F0A9FD324620464FF4007102F01B
:10068C00A3FD43462A460DF10701386803F046F9ED
:10069C002A462046802102F097FD1B233246204635
:1006AC0080218DF8073002F08FFD2A4620464FF44A
:1006BC00007102F089FD43462A460DF107013868A6
:1006CC0003F02CF92A462046802102F07DFD2046BD
:1006DC00324680218DF807B002F076FD3246204676
:1006EC004FF4007102F070FD43462A460DF10701EC
:1006FC00386803F013F92A462046802102F064FD85
:10070C002046324680218DF8075002F05DFD2A46C6
:10071C0020464FF4007102F057FD43462A460DF176
:10072C000701386803F0FAF82A462046802102F0C7
:10073C004BFDC5232046324680218DF8073002F050
:10074C0043FD324620464FF4007102F03DFD434616
:10075C002A460DF10701386803F0E0F82A462046D6
:10076C00802102F031FD2046324680218DF807A011
:10077C0002F02AFD2A4620464FF4007102F024FDB7
:10078C0043462A460DF10701386803F0C7F82A469C
:10079C002046802102F018FD2046324680218DF83B
:1007AC0007A002F011FD2A4620464FF4007102F01A
:1007BC000BFD43462A460DF10701386803F0AEF8ED
:1007CC002A462046802102F0FFFCC72320463246F1
:1007DC0080218DF8073002F0F7FC324620464FF4AA
:1007EC00007102F0F1FC43462A460DF1070138680E
:1007FC0003F094F82A462046802102F0E5FCB7234A
:10080C002046324680218DF8073002F0DDFC2A4666
:10081C0020464FF4007102F0D7FC43462A460DF1F6
:10082C000701386803F07AF82A462046802102F046
:10083C00CBFC36232046324680218DF8073002F05F
:10084C00C3FC324620464FF4007102F0BDFC434617
:10085C002A460DF10701386803F060F82A46204655
:10086C00802102F0B1FC48232046324680218DF8CD
:10087C00073002F0A9FC2A4620464FF4007102F022
:10088C00A3FC43462A460DF10701386803F046F8ED
:10089C002A462046802102F097FC3A232046324615
:1008AC0080218DF8073002F08FFC324620464FF441
:1008BC00007102F089FC43462A460DF107013868A5
:1008CC0003F02CF82A462046802102F07DFC5523AB
:1008DC002046324680218DF8073002F075FC2A46FE
:1008EC0020464FF4007102F06FFC43462A460DF18E
:1008FC000701386803F012F82A462046802102F0DE
:10090C0063FCB1232046324680218DF8073002F07B
:10091C005BFC324620464FF4007102F055FC434616
:10092C002A460DF10701386802F0F8FF2A462046E6
:10093C00802102F049FC2046324680218DF8076068
:10094C0002F042FC2A4620464FF4007102F03CFCB7
:10095C0043462A460DF10701386802F0DFFF2A46AC
:10096C002046802102F030FC1A232046324680219A
:10097C008DF8073002F028FC2A4620464FF400710F
:10098C0002F022FC43462A460DF10701386802F0BA
:10099C00C5FF2A462046802102F016FCB6234FF0F4
:1009AC000A0A2046324680218DF8073002F00CFCF2
:1009BC00324620464FF4007102F006FC43462A46AC
:1009CC000DF10701386802F0A9FF2A462046802164
:1009DC0002F0FAFB2046324680218DF807A002F087
:1009EC00F3FB2A4620464FF4007102F0EDFB434620
:1009FC002A460DF10701386802F090FF2A4620467E
:100A0C00802102F0E1FBA2232046324680218DF8A2
:100A1C00073002F0D9FB2A4620464FF4007102F051
:100A2C00D3FB43462A460DF10701386802F076FFE6
:100A3C002A462046802102F0C7FBF223204632468C
:100A4C0080218DF8073002F0BFFB324620464FF470
:100A5C00007102F0B9FB43462A460DF107013868D4
:100A6C0002F05CFF2A462046802102F0ADFB2046B6
:100A7C00324680218DF8076002F0A6FB2A462046FC
:100A8C004FF4007102F0A0FB43462A460DF107011A
:100A9C00386802F043FF2A462046802102F094FB7E
:100AAC0026232046324680218DF8073002F08CFB3D
:100ABC00324620464FF4007102F086FB43462A462C
:100ACC000DF10701386802F029FF2A4620468021E3
:100ADC0002F07AFB2046324680218DF8075002F056
:100AEC0073FB2A4620464FF4007102F06DFB43461F
:100AFC002A460DF10701386802F010FF2A462046FD
:100B0C00802102F061FBE0234FF00F0920463246B2
:100B1C0080218DF8073002F057FB324620464FF407
:100B2C00007102F051FB43462A460DF1070138686B
:100B3C0002F0F4FE2A462046802102F045FB2046B6
:100B4C00324680218DF8079002F03EFB2A46204663
:100B5C004FF4007102F038FB43462A460DF10701B1
:100B6C00386802F0DBFE2A462046802102F02CFB7E
:100B7C002A232046324680218DF8073002F024FBD0
:100B8C002A4620464FF4007102F01EFB43462A46CB
:100B9C000DF10701386802F0C1FE2A46204680217B
:100BAC0002F012FB28234FF0080820463246802121
:100BBC008DF8073002F008FB2A4620464FF40071EE
:100BCC0002F002FB64232A460DF10701386802F09B
:100BDC00A5FE2A462046802102F0F6FA204632462F
:100BEC0080218DF8078002F0EFFA2A4620464FF458
:100BFC00007102F0E9FA64232A460DF10701386806
:100C0C0002F08CFE2A462046802102F0DDFA0E23EB
:100C1C002046324680218DF8073002F0D5FA2A465C
:100C2C0020464FF4007102F0CFFA64232A460DF1EE
:100C3C000701386802F072FE2A462046802102F035
:100C4C00C3FA2046324680218DF8078002F0BCFAA8
:100C5C002A4620464FF4007102F0B6FA64232A4665
:100C6C000DF10701386802F059FE2A462046802112
:100C7C0002F0AAFA54232046324680218DF8073020
:100C8C0002F0A2FA2A4620464FF4007102F09CFAB8
:100C9C0064232A460DF10701386802F03FFE2A460C
:100CAC002046802102F090FAA9232046324680216A
:100CBC008DF8073002F088FA2A4620464FF400716E
:100CCC0002F082FA64232A460DF10701386802F01B
:100CDC0025FE2A462046802102F076FA4323204640
:100CEC00324680218DF8073002F06EFA2A462046F3
:100CFC004FF4007102F068FA64232A460DF10701E3
:100D0C00386802F00BFE2A462046802102F05CFA7D
:100D1C002046324680218DF807A002F055FA2A466B
:100D2C0020464FF4007102F04FFA64232A460DF16D
:100D3C000701386802F0F2FD2A462046802102F0B5
:100D4C0043FA2046324680218DF8079002F03CFA97
:100D5C002A4620464FF4007102F036FA64232A46E4
:100D6C000DF10701386802F0D9FD2A462046802192
:100D7C0002F02AFA2046324680218DF8076002F0F4
:100D8C0023FA2A4620464FF4007102F01DFA642320
:100D9C002A460DF10701386802F0C0FD2A462046AC
:100DAC00802102F011FA2046324680218DF807602E
:100DBC0002F00AFA2A4620464FF4007102F004FAB7
:100DCC0064232A460DF10701386802F0A7FD2A4674
:100DDC002046802102F0F8F92046324680218DF819
:100DEC00076002F0F1F92A4620464FF4007102F038
:100DFC00EBF964232A460DF10701386802F08EFDE9
:100E0C002A462046802102F0DFF920463246802116
:100E1C008DF8076002F0D8F92A4620464FF400718D
:100E2C0002F0D2F964232A460DF10701386802F06A
:100E3C0075FD2A462046802102F0C6F9E1232046A2
:100E4C00324680218DF8073002F0BEF9324620463A
:100E5C004FF4007102F0B8F964232A460DF1070132
:100E6C00386802F05BFD2A462046802102F0ACF97E
:100E7C002046324680218DF8076002F0A5F92A46FB
:100E8C0020464FF4007102F09FF964232A460DF1BD
:100E9C000701386802F042FD2A462046802102F004
:100EAC0093F915232046324680218DF8073002F045
:100EBC008BF92A4620464FF4007102F085F9642321
:100ECC002A460DF10701386802F028FD2A46204613
:100EDC00802102F079F917232046324680218DF8C3
:100EEC00073002F071F92A4620464FF4007102F0E7
:100EFC006BF964232A460DF10701386802F00EFDE8
:100F0C002A462046802102F05FF907234FF0110B8F
:100F1C002046324680218DF8073002F055F92A46DA
:100F2C0020464FF4007102F04FF964232A460DF16C
:100F3C000701386802F0F2FC2A462046802102F0B4
:100F4C0043F92046324680218DF807B002F03CF977
:100F5C002A4620464FF4007102F036F964232A46E3
:100F6C000DF10701386802F0D9FC2A462046802191
:100F7C0002F02AF906234FF02B0820463246802136
:100F8C008DF8073002F020F92A4620464FF4007104
:100F9C0002F01AF964232A460DF10701386802F0B1
:100FAC00BDFC2A462046802102F00EF9204632462E
:100FBC0080218DF8078002F007F92A4620464FF46D
:100FCC00007102F001F964232A460DF1070138681B
:100FDC0002F0A4FC2A462046802102F0F5F85623A4
:100FEC002046324680218DF8073002F0EDF82A4673
:100FFC0020464FF4007102F0E7F864232A460DF105
:10100C000701386802F08AFC2A462046802102F04B
:10101C00DBF83C232046324680218DF8073002F065
:10102C00D3F82A4620464FF4007102F0CDF8642321
:10103C002A460DF10701386802F070FC2A4620465A
:10104C00802102F0C1F805232046324680218DF81C
:10105C00073002F0B9F82A4620464FF4007102F02E
:10106C00B3F864232A460DF10701386802F056FCE8
:10107C002A462046802102F0A7F810234FF03F0AA1
:10108C002046324680218DF8073002F09DF82A4622
:10109C0020464FF4007102F097F864232A460DF1B4
:1010AC000701386802F03AFC2A462046802102F0FB
:1010BC008BF82046324680218DF8079002F084F898
:1010CC002A4620464FF4007102F07EF864232A462B
:1010DC000DF10701386802F021FC2A4620468021D8
:1010EC0002F072F82046324680218DF807A002F0FB
:1010FC006BF82A4620464FF4007102F065F8642321
:10110C002A460DF10701386802F008FC2A462046F1
:10111C00802102F059F82046324680218DF807A034
:10112C0002F052F82A4620464FF4007102F04CF8B7
:10113C0064232A460DF10701386802F0EFFB2A46BA
:10114C002046802102F040F82046324680218DF85E
:10115C00079002F039F82A4620464FF4007102F04D
:10116C0033F864232A460DF10701386802F0D6FBE8
:10117C002A462046802102F027F82046324680215C
:10118C008DF8078002F020F8324620464FF40071AB
:10119C0002F01AF864232A460DF10701386802F0B0
:1011AC00BDFB2A462046802102F00EF8204632462E
:1011BC0080218DF8076002F007F82A4620464FF48C
:1011CC00007102F001F864232A460DF1070138681A
:1011DC0002F0A4FB2A462046802101F0F5FF2046B0
:1011EC00324680218DF8076001F0EEFF2A4620463A
:1011FC004FF4007101F0E8FF64232A460DF107015A
:10120C00386802F08BFB2A462046802101F0DCFF77
:10121C002046324680218DF8075001F0D5FF2A4632
:10122C0020464FF4007101F0CFFF64232A460DF1E4
:10123C000701386802F072FB2A462046802101F033
:10124C00C3FF2046324680218DF807A001F0BCFF79
:10125C002A4620464FF4007101F0B6FF64232A465B
:10126C000DF10701386802F059FB2A46204680210F
:10127C0001F0AAFF2A232046324680218DF8073040
:10128C0001F0A2FF324620464FF4007101F09CFFA2
:10129C0064232A460DF10701386802F03FFB2A4609
:1012AC002046802101F090FF2046324680218DF8A7
:1012BC00076001F089FF2A4620464FF4007101F0C7
:1012CC0083FF64232A460DF10701386802F026FBE0
:1012DC002A462046802101F077FF204632468021A5
:1012EC008DF8076001F070FF2A4620464FF400711C
:1012FC0001F06AFF64232A460DF10701386802F0F9
:10130C000DFB2A462046802101F05EFF2046324626
:10131C0080218DF8076001F057FF2A4620464FF4D4
:10132C00007101F051FF64232A460DF10701386862
:10133C0002F0F4FA2A462046802101F045FFEF2303
:10134C002046324680218DF8073001F03DFF2A46B9
:10135C0020464FF4007101F037FF64232A460DF14B
:10136C000701386802F0DAFA2A462046802101F09B
:10137C002BFF2046324680218DF807B001F024FF68
:10138C00324620464FF4007101F01EFF64232A46BA
:10139C000DF10701386802F0C1FA2A468021204677
:1013AC0001F012FF782001F00DFD29232046324672
:1013BC0080218DF8073001F007FF324620464FF4AC
:1013CC00007101F001FF64232A460DF10701386812
:1013DC0002F0A4FA2A462046802101F0F5FE3623BD
:1013EC001E4A8DF807301E4B20461A601D4A80217C
:1013FC009A603246A3F80C809D7101F0E5FE3246EE
:10140C0020464FF4007101F0DFFE64232A460DF1F3
:10141C000701386802F082FA2A462046802101F042
:10142C00D3FE6C233246204680218DF8073001F024
:10143C00CBFE2A4620464FF4007101F0C5FE642312
:10144C002A460DF10701386802F068FA2A46802115
:10145C00204601F0B9FE03B0BDE8F08F4001F0006A
:10146C00600400202C002A0000222DE9F0431546D0
:10147C00BD4F83B07B89BD4E80218046BC488DF822
:10148C000730B7F800907C8801F09EFE2A464FF496
:10149C000071B74801F098FE642301220DF1070199
:1014AC00306802F03BFA01228021B14801F08CFE39
:1014BC002A468021AE488DF8075001F085FE0122A6
:1014CC004FF40071AA4801F07FFE642301220DF154
:1014DC000701306802F022FA01228021A44801F0B1
:1014EC0073FE2A468021A2488DF8075001F06CFE4D
:1014FC0001224FF400719E4801F066FE09F1FF399C
:10150C00642301220DF10701306802F007FA1FFA7B
:10151C0089F901228021964801F056FE4FEA1923E1
:10152C002A46802192488DF8073001F04DFE0122A9
:10153C004FF400718E4801F047FE642301220DF137
:10154C000701306802F0EAF901228021884801F095
:10155C003BFE2A46802186488DF8079001F034FE28
:10156C0001224FF40071824801F02EFE6423012207
:10157C000DF10701306802F0D1F9012280217C487D
:10158C0001F022FEBB8980212A4679488DF807306C
:10159C0001F01AFE2A464FF40071754801F014FE52
:1015AC00642301220DF10701306802F0B7F9012222
:1015BC0080216F4801F008FE2A4680216C488DF886
:1015CC00075001F001FE01224FF40071684801F050
:1015DC00FBFD642301220DF10701306802F09EF936
:1015EC0001228021624801F0EFFD2A4680216048EB
:1015FC008DF8075001F0E8FD01224FF400715C48B2
:10160C0001F0E2FD013C642301220DF10701306879
:10161C0002F084F9A4B201228021554801F0D4FDD6
:10162C00230A2A46802152488DF8073001F0CCFD60
:10163C0001224FF400714E4801F0C6FD64230122D3
:10164C000DF10701306802F069F901228021484848
:10165C0001F0BAFD2A46802145488DF8074001F07B
:10166C00B3FD01224FF40071414801F0ADFD64233C
:10167C0001220DF10701306802F050F9012280219E
:10168C003B4801F0A1FD3B8980212A4638488DF862
:10169C00073001F099FD2A464FF40071344801F0EF
:1016AC0093FD642301220DF10701306802F036F935
:1016BC00802101222E4801F087FD2A4680212C48EA
:1016CC0001F082FD01224FF40071294801F07CFDEC
:1016DC003B887A8802FB03F3002B3DD0244C4FEA65
:1016EC0018295FFA88F80022802120468DF807908F
:1016FC0001F06AFD01224FF40071204601F064FDF7
:10170C00642301220DF10701306802F007F9012270
:10171C008021204601F058FD0022802120468DF8C2
:10172C00078001F051FD01224FF40071204601F0B9
:10173C004BFD642301220DF10701306802F0EEF835
:10174C0001228021204601F03FFD3B887A8801353B
:10175C0002FB03F3AB42C6D801228021044803B03C
:10176C00BDE8F04301F030BD600400205C040020B3
:10177C00000C01402DE9F04307460E46DFF8CC91F2
:10178C00734CB9F80A3083B0724D20460022802188
:10179C008DF8073001F018FD204600224FF400713F
:1017AC0001F012FD64230DF107010122286802F0FB
:1017BC00B5F820460122802101F006FD3B0A2046A7
:1017CC00002280218DF8073001F0FEFC204601221A
:1017DC004FF4007101F0F8FC64230DF107010122B4
:1017EC00286802F09BF820460122802101F0ECFCD5
:1017FC002046002280218DF8077001F0E5FC204680
:10180C0001224FF4007101F0DFFC64230DF107019C
:10181C000122286802F082F820460122802101F082
:10182C00D3FCB9F80C302046002280218DF807300B
:10183C0001F0CAFC204600224FF4007101F0C4FCF8
:10184C0064230DF107010122286802F067F8204695
:10185C000122802101F0B8FC330A204600228021AD
:10186C008DF8073001F0B0FC204601224FF40071D6
:10187C0001F0AAFC64230DF107010122286802F093
:10188C004DF820460122802101F09EFC20460022CA
:10189C0080218DF8076001F097FC204601224FF45F
:1018AC00007101F091FC64230DF1070101222868FD
:1018BC0002F034F820460122802101F085FCB9F8B1
:1018CC0008302046002280218DF8073001F07CFC86
:1018DC00204600224FF4007101F076FC64230DF1D8
:1018EC0007010122286802F019F820460122802104
:1018FC0001F06AFCDFF8608020460022802101F0B4
:10190C0063FC204601224FF4007101F05DFCB8F835
:10191C0000300DF107011B0A8DF8073001226423FA
:10192C00286801F0FBFFB8F800600DF107010122F7
:10193C00642328688DF8076001F0F0FF01228021F4
:10194C00204603B0BDE8F04301F03EBC600400202B
:10195C00000C01405C0400205804002013462DE9C3
:10196C00F04F03EB830387B000EB830988460292A8
:10197C0002EB42019B0092004845064600910392FF
:10198C00019312DA08EB0104A045B8BF07460CDA44
:10199C004546294601353846ADB2FFF7EBFEA54268
:1019AC00F7DB0137BFB24F45F2DB009B06EB030BB5
:1019BC00B34577DD019B08EB0304A045B8BF374660
:1019CC000CDA4546294601353846ADB2FFF7D2FE52
:1019DC00A542F7DB0137BFB25F45F2DB009BA9EBF9
:1019EC000307BFB24F4514DAA045B8BFBA460EDAAA
:1019FC004546294601355046ADB2FFF7BBFEAC4219
:101A0C00F7DC0AF1010A1FFA8AFACA45F0DBB34582
:101A1C0051DD019AA3B208EB4205009A04931544D8
:101A2C009D4220DD9A4605965446214601343046A7
:101A3C00A4B2FFF79FFEA542F7DC701C86B25E4590
:101A4C00F2DB4F45059E0EDADDF810A05446214618
:101A5C0001343846A4B2FFF78DFEAC42F7DB0137F8
:101A6C00BFB24F45F2DB4E4519DADDE902731F4474
:101A7C00019B08EBC70708EB4305009BBFB21D4455
:101A8C00AF420CDA3C46214601343046A4B2FFF793
:101A9C0071FEAC42F7DB0136B6B24E45F2DB07B055
:101AAC00BDE8F08FA9EB0307BFB24F45DBDA019B12
:101ABC0008EB030498E7019B009AE5181544A3B2C0
:101ACC009D42C8BF9A460493C0DCCCE713462DE96F
:101ADC00F04F03EB830A85B000EB8A07019202EB0F
:101AEC00420B4FEA8A039200B8420446884602929F
:101AFC00009380F2818001EB0B05A942B8BF8146AF
:101B0C000EDA4646314601364846B6B2FFF732FE8B
:101B1C00AE42F7DB09F101091FFA89F9B945F0DB8F
:101B2C00A7EB0B00009B1FFA80FABA4503EB0805E4
:101B3C0012DA454510DD4646314601365046B6B2FE
:101B4C00FFF718FEB542F7DC0AF1010A1FFA8AFA10
:101B5C00BA45F0DBBC4258DA009BADB243440BEB08
:101B6C000306B542039311DAA146AA4651460AF17F
:101B7C00010A48461FFA8AFAFFF7FCFDB245F5DB6D
:101B8C0009F101091FFA89F9B945EEDB0BEB0406E3
:101B9C00A64249DD009B08EB430AD3445D4511DAAC
:101BAC00A146AA4651460AF1010A48461FFA8AFA8A
:101BBC00FFF7E0FDDA45F5DB09F101091FFA89F9B8
:101BCC004E45EEDCBC4214DADDE901631E4408EB41
:101BDC00C606B6B2B3450CDD35462946013520465E
:101BEC00ADB2FFF7C7FD5D45F7DB0134A4B2BC42D3
:101BFC00F2DB05B0BDE8F08FA7EB0B001FFA80FA03
:101C0C00BA4502DACD18A94295DB0BEB0406A642C5
:101C1C00EFDD009B08EB030508EB430AD344ADB2A0
:101C2C005D45E6DAA146BCE7DDF80CA0009B9A44C2
:101C3C00D344C9E713462DE9F04F03EB830387B078
:101C4C0000EB83078846039202EB42019B00920053
:101C5C00B842054601910492029314DA01EB080490
:101C6C00A045B8BF82460EDA46463146013650468C
:101C7C00B6B2FFF77FFDA642F7DB0AF1010A1FFAA5
:101C8C008AFABA45F0DB019BFE1AB6B2BE4265DA9F
:101C9C00029B08EB0304A045B8BFB34610DAC1465B
:101CAC00494609F1010958461FFA89F9FFF762FD07
:101CBC00A145F5DB0BF1010B1FFA8BFBBB45EEDBF2
:101CCC00BD4251DA019B1FFA84FA1C44029BA245C7
:101CDC004344059311DAAB46D146494609F1010953
:101CEC0058461FFA89F9FFF745FDA145F5DB0BF1C5
:101CFC00010B1FFA8BFBBB45EEDBBE423FDA029BAE
:101D0C00DDF804B008EB43039B44DA450EDA544685
:101D1C00214601343046A4B2FFF72CFD5C45F7DBBD
:101D2C000136B6B2BE42F2DBBD4214DADDE9036322
:101D3C001E4408EBC606B6B2B3450CDD344621464C
:101D4C0001342846A4B2FFF715FD5C45F7DB0135DD
:101D5C00ADB2BD42F2DB07B0BDE8F08FBD42FADA9E
:101D6C00029B08EB0304ADE7029BDDF804B008EB23
:101D7C0043039B441FFA84FAD345C8DCEBE7059B6D
:101D8C00029ADDF804B013449B44CFE72DE9F04FE1
:101D9C0002EB420300EB030883B002EB82024045E6
:101DAC0004468A4600934FEA820613DA8F19B94229
:101DBC00B8BF81460EDA5546294601354846ADB2C4
:101DCC00FFF7D8FCBD42F7DB09F101091FFA89F9CD
:101DDC00C145F0DB009B04EB0609A9EB0305ADB292
:101DEC004D4546DA06EB0A07BA45B8BFAB4610DAE2
:101DFC00D046414608F1010858461FFA88F8FFF70B
:101E0C00B9FCB845F5DB0BF1010B1FFA8BFBD9457F
:101E1C00EEDCA1453BDD009ABBB207EB020898450E
:101E2C009B4601930EDD5F46394601372046BFB213
:101E3C00FFF7A0FC4745F7DB0134A4B2A145F2DC67
:101E4C004D4513DA009B0AEB46061E44019BB34238
:101E5C000CDA5C46214601342846A4B2FFF78AFC12
:101E6C00B442F7DB0135ADB2A945F2DC03B0BDE8F5
:101E7C00F08FA145FADD1A4606EB0A0B1FFA8BF31D
:101E8C0002EB0B0843459B460193CCDBEEE71FFAB4
:101E9C0087FBCDF804B0D5E72DE9F04F914609EB5F
:101EAC00890A85B002EB420300EB8A07920002928A
:101EBC00B8424FEA8A0204468846009301927FDAC0
:101ECC00CD18A942B8BF82460EDA464631460136D5
:101EDC005046B6B2FFF74EFCAE42F7DB0AF1010AF0
:101EEC001FFA8AFABA45F0DB009BE618019BA64262
:101EFC0003EB080515DD454513DDA246C3465946DF
:101F0C000BF1010B50461FFA8BFBFFF733FC5D45C1
:101F1C00F5DC0AF1010A1FFA8AFAB245EEDBBC4283
:101F2C0054DA019B009A4344ADB29E18AE4203931F
:101F3C0011DDA246AB4659460BF1010B50461FFA78
:101F4C008BFBFFF717FC5E45F5DC0AF1010A1FFA63
:101F5C008AFABA45EEDB009BF81A1FFA80FABA45EA
:101F6C009B4644DA019B08EB43039B44AB450EDDD7
:101F7C002E46314601365046B6B2FFF7FBFB5E45A6
:101F8C00F7DB0AF1010A1FFA8AFABA45F0DBBC4208
:101F9C0013DA029E4E4408EBC606B6B25E450CDA66
:101FAC003546294601352046ADB2FFF7E3FB5D45CA
:101FBC00F7DB0134A4B2BC42F2DB05B0BDE8F08F14
:101FCC001E18864202DD8D18A94296DB009BF81A7A
:101FDC001FFA80FABA45F0DA9B46019B08EB030521
:101FEC0008EB43039B44ADB25D45C1DBE5E7DDF88F
:101FFC000CA0019B9A44D344CBE700BF13462DE9B8
:10200C00F04F03EB830387B000EB83080D4603927C
:10201C0002EB42019B009200404504460091049261
:10202C00019380F2A8806E18B542B8BF81460EDAD3
:10203C002F46394601374846BFB2FFF79BFBB742E4
:10204C00F7DB09F101091FFA89F9C145F0DB009BA7
:10205C0004EB0309A14540F39C80019BEE18B542AB
:10206C00B8BFA2460EDA2F46394601375046BFB2EA
:10207C00FFF780FBB742F7DB0AF1010A1FFA8AFA75
:10208C00D145F0DC444580F28E80009BB2B29F19A2
:10209C009742029214DDDDF808B00594DA465146F9
:1020AC000AF1010A20461FFA8AFAFFF763FBBA45C8
:1020BC00F5DB601C84B24445F0DB059C4C451ADA18
:1020CC00019B05EB4307009B1F44029B9F4212DDC3
:1020DC00CB4699460294CA4651460AF1010A20465B
:1020EC001FFA8AFAFFF746FB5745F5DC601C84B2F1
:1020FC00A345F0DC029C009BA8EB030A1FFA8AFAAA
:10210C00C24518DA019BB6B205EB4307009B1F448E
:10211C00B74210DDB146494609F1010950461FFA94
:10212C0089F9FFF727FBB945F5DB0AF1010A1FFA1C
:10213C008AFAC245EEDB44451ADADDE903631E4434
:10214C00019BDDF800B005EBC60605EB4305B6B206
:10215C00AB445E450CDA3546294601352046ADB216
:10216C00FFF708FB5D45F7DB0134A4B24445F2DB15
:10217C0007B0BDE8F08F01EB000981453FF76DAF6B
:10218C00A8EB010A1FFA8AFAC245F1DA019BEE1894
:10219C00B8E7019BEE18009BB2B2F7189742029277
:1021AC003FF779AFA7E7B3B2029389E713462DE95E
:1021BC00F04F03EB830A87B000EB8A080E460392BC
:1021CC0002EB42014FEA8A0392004045044601911A
:1021DC000492029313DA7518AE42B8BF81460EDA38
:1021EC003746394601374846BFB2FFF7C3FAAF420C
:1021FC00F7DB09F101091FFA89F9C145F0DB019BF5
:10220C0003EB0409A14514DD029BF518AE42B8BFDF
:10221C00A3460EDA3746394601375846BFB2FFF7A8
:10222C00A9FAAF42F7DB0BF1010B1FFA8BFBCB4585
:10223C00F0DB019BA8EB0305ADB2454516DA029B1A
:10224C00F718BE42B8BFAA4610DAB34659460BF18E
:10225C00010B50461FFA8BFBFFF78CFA5F45F5DC40
:10226C000AF1010A1FFA8AFAC245EEDB444518DA74
:10227C00029B019AF718BBB21744BB4211DA9A467B
:10228C000594D34659460BF1010B20461FFA8BFBE4
:10229C00FFF770FA5F45F5DC601C84B24445F0DB57
:1022AC00059CA1451DDD029B06EB030B06EB4307CA
:1022BC00019B1FFA8BF21F44BA4212DACA469146AE
:1022CC000594CB4659460BF1010B20461FFA8BFBAC
:1022DC00FFF750FA5F45F5DC601C84B25445F0DB27
:1022EC00059C454519DA029B06EB030906EB4307EF
:1022FC00019B1FFA89F91F444F450EDDCA46514612
:10230C000AF1010A28461FFA8AFAFFF733FABA458E
:10231C00F5DB0135ADB24545F0DB444519DADDE9B5
:10232C0003731F44029B06EBC70706EB4306019B96
:10233C00BFB21E44B7420CDA3D4629460135204651
:10234C00ADB2FFF717FAB542F7DB0134A4B244453E
:10235C00F2DB07B0BDE8F08F13462DE9F04F03EB2D
:10236C00830387B000EB83078846039202EB42019C
:10237C009B009200B842054601910492029314DA34
:10238C0008EB0104A045B8BF82460EDA464631463A
:10239C0001365046B6B2FFF7EDF9A642F7DB0AF16B
:1023AC00010A1FFA8AFABA45F0DB019BEE18AE421D
:1023BC0017DD029B08EB0304A045B8BFAB4610DA4F
:1023CC00C146494609F1010958461FFA89F9FFF738
:1023DC00D1F9A145F5DB0BF1010B1FFA8BFBB345D2
:1023EC00EEDB019BFE1AB6B2BE4265DA029B08EB2D
:1023FC000304A045B8BFB34610DAC146494609F1FB
:10240C00010958461FFA89F9FFF7B4F94C45F5DC78
:10241C000BF1010B1FFA8BFBBB45EEDBBD4251DA16
:10242C00019B1FFA84FA1C44029BA245434405936A
:10243C0011DAAB46D146494609F1010958461FFA53
:10244C0089F9FFF797F94C45F5DC0BF1010B1FFAF5
:10245C008BFBBB45EEDBBE423FDA029BDDF804B0E2
:10246C0008EB43039B44DA450EDA5446214601340B
:10247C003046A4B2FFF77EF95C45F7DB0136B6B205
:10248C00BE42F2DBBD4214DADDE903631E4408EB05
:10249C00C606B6B2B3450CDD344621460134284697
:1024AC00A4B2FFF767F95C45F7DB0135ADB2BD426D
:1024BC00F2DB07B0BDE8F08FBD42FADA029B08EB05
:1024CC000304ADE7029BDDF804B008EB43039B4427
:1024DC001FFA84FADA45C8DBEBE7059B029ADDF8B4
:1024EC0004B013449B44CFE72DE9F84F8846092BE1
:1024FC003BD8DFE803F04105A49FA9464B509A3C1A
:10250C0002EB820A00EB8A0502EB4209A5EB0906F5
:10251C00B6B2B5424FEA8A0A27DD0AEB0807B8457E
:10252C00B8BFB3460EDA4446214601345846A4B22D
:10253C00FFF720F9A742F7DC0BF1010B1FFA8BFB1D
:10254C005D45F0DC08EB4A08BFB2C144B9450CDD6F
:10255C003C46214601343046A4B2FFF70BF94C45FA
:10256C00F7DB0136B6B2B542F2DCBDE8F88F414676
:10257C00BDE8F84FFFF7F0BE4146BDE8F84FFFF756
:10258C00EDB94146BDE8F84FFFF786BC4146BDE8C2
:10259C00F84FFFF733BD02EB8207BE0000EB870755
:1025AC00B84202EB420912DA09EB080AD045B8BF6F
:1025BC0005460CDA4446214601342846A4B2FFF7FE
:1025CC00D9F85445F7DB0135ADB2BD42F2DBA7EBD0
:1025DC000905ADB2BD42C8DA08EB060AD045B8BF52
:1025EC00AB460EDA4446214601345846A4B2FFF7F6
:1025FC00C1F85445F7DB0BF1010B1FFA8BFBBB4504
:10260C00F0DB5644B1441FFA8AFAD145ADDD54468D
:10261C00214601342846A4B2FFF7ACF84C45F7DB51
:10262C000135ADB2BD42F2DB9FE74146BDE8F84F44
:10263C00FFF7BCBD4146BDE8F84FFFF7FBBA41467A
:10264C00BDE8F84FFFF742BA4146BDE8F84FFFF737
:10265C009DBB00BF2DE9F04F02EB820802EB420B51
:10266C004FEA880600EB88081FFA88F9D844C14560
:10267C0005468A4683B030DA01EB46075F447300A7
:10268C00B94201930EDA5446214601344846A4B2AD
:10269C00FFF770F8BC42F7DB09F101001FFA80F973
:1026AC00C145F0DB019F2F445F44AF4212DD56441D
:1026BC001FFA86F8B344D8450CDA44462146013457
:1026CC002846A4B2FFF756F85C45F7DB0135ADB2EE
:1026DC00BD42F2DB03B0BDE8F08F73000193E1E77C
:1026EC0010B504460A2123780846303B0222DBB29F
:1026FC00FFF7FAFE63780222303B0A213C20DBB262
:10270C00FFF7F2FEA3780222303BDBB20A216E20E7
:10271C00FFF7EAFE02220A21A020FFF79BFF237994
:10272C000222303B64210A20DBB2FFF7DDFE637925
:10273C000222303B64213C20DBB2FFF7D5FEA379AB
:10274C000222BDE81040303B64216E20DBB2FFF763
:10275C00CBBE00BF38B51E4A0368934225D01D4A34
:10276C00934200D038BD1C4C1C4B21681B781C4874
:10277C004D1C0A2B4354256006D0BDE8384001227D
:10278C001649184801F0EEBA174901F07FFE18B14E
:10279C000530FFF7A5FF25680A2311491348AAB293
:1027AC0001F058FA00232360E7E704464FF4005188
:1027BC000F4800F00DFD01220A2320460D4901F0BF
:1027CC0049FA2046BDE8384001220A4901F0CABA4C
:1027DC000038014000440040140A0020180A002070
:1027EC00140600208C050020AC4800084805002089
:1027FC00001001407004002000230122D0B50120FC
:10280C0090B04FF480310224CDE90B33CDE9013384
:10281C00CDE90333089300930A9209934FF4803265
:10282C004FF4E013CDE9060106A8CDE90E230D9473
:10283C0000F0D8FC08B172B6FEE703460F2602275B
:10284C00002204934FF4806321466846CDE900676B
:10285C00CDE9022300F0B6FE08B172B6FEE710B067
:10286C00D0BD00BF002580B58AB000F087FAFFF715
:10287C00C3FFCDE90455CDE90655704B4FF400511B
:10288C009A696F4842F010029A619A694FF00008F9
:10289C0002F010020092009A9A694FF0030942F07C
:1028AC0020029A619A69674C02F020020192019A07
:1028BC009A690A2642F004029A619A6902F00402AB
:1028CC000292029A9A6942F008029A619B692A461E
:1028DC0003F008030393039B00F076FC2A464FF4A5
:1028EC006071594800F070FC4FF4005201235448B9
:1028FC0004A9CDE90423CDE9068900F057FB4FF478
:10290C0060720123504804A9CDE90423CDE906895E
:10291C0000F04CFB4D4B4FF4007223604FF482736C
:10292C00636008232046C4E90355C4E90855A56033
:10293C006561A562E662A261E36100F091FF08B1F6
:10294C0072B6FEE74FF4E1394FF00C08404D414BA5
:10295C00C5E90200C5E9060028612846C5E9003929
:10296C00C5F8148001F008F908B172B6FEE73A4FC9
:10297C003A4BC7E90190C7E90300C7E90580F86144
:10298C0038463B6001F0F8F8034680B93448C0E99A
:10299C000233C0E906330361324BC0F80490C0F82F
:1029AC001480036001F0E8F818B172B6FEE772B655
:1029BC00FEE7284601222C4901F0D4F901222B49CB
:1029CC00384601F0CFF92046FDF7BAFBFDF7BEFB08
:1029DC004FF47840FEF748FD254B04AD0FCB07C5EF
:1029EC000D222B8004A93346384601F033F94FF4FD
:1029FC007A7000F0E7F91F4B04AC0FCB07C40D2223
:102A0C002B8004A9334638461B4D01F023F904AC46
:102A1C004FF47A7000F0D6F90FCD0FC495E803008F
:102A2C0044F8040B218033461522384604A901F0E2
:102A3C0011F94FF47A7000F0C5F9FEE7001002406E
:102A4C0000100140F0040020000C01400030014057
:102A5C0048050020003801408C050020004400404F
:102A6C00D00500200048004070040020180A002007
:102A7C00B4480008C4480008D44800080E4B82B083
:102A8C009A690E4942F001029A619A6902F00102B8
:102A9C000092009ADA6942F08052DA61DB6903F045
:102AAC0080530193019B4B6823F0E06343F0007368
:102ABC004B6002B0704700BF0010024000000140A4
:102ACC00D0B50024194B026886B09A42CDE9024475
:102ADC00CDE9044401D006B0D0BD03F560439A693A
:102AEC00A02642F480529A619A69022702F480521D
:102AFC000092009A9A6902A942F004029A619B69B9
:102B0C000B4803F0040301930323019A0593CDE9C9
:102B1C00026700F04BFA40220023054802A9CDE9D8
:102B2C000223049400F042FA06B0D0BD00300140FC
:102B3C0000080140D0B50024524A03688AB0934281
:102B4C00CDE90644CDE9084407D04F4A934236D02C
:102B5C004E4A934263D00AB0D0BD4D4B4FF4007631
:102B6C009A69022742F480429A619A6906A902F492
:102B7C0080420092009A9A69464842F004029A6197
:102B8C009B69CDE9066703F0040301930323019AC3
:102B9C00099300F00BFA00234FF4806206A93D481C
:102BAC00CDE90623089400F001FA2246214625209F
:102BBC0000F02CF9252000F067F90AB0D0BD344B99
:102BCC000426DA69022742F40032DA61DA6906A9CE
:102BDC0002F400320292029A9A692E4842F00402E0
:102BEC009A619B69CDE9066703F004030393032301
:102BFC00039A099300F0DAF90023082206A9254864
:102C0C00CDE90623089400F0D1F92246214626206E
:102C1C0000F0FCF8262000F037F90AB0D0BD1C4BB0
:102C2C004FF48066DA69022742F48022DA61DA69AD
:102C3C0006A902F480220492049A9A69164842F07A
:102C4C0008029A619B69CDE9066703F008030593B6
:102C5C000323059A099300F0A9F900234FF40062AD
:102C6C0006A90D48CDE90623089400F09FF92246E9
:102C7C002146272000F0CAF8272000F005F90AB0F9
:102C8C00D0BD00BF00380140004400400048004067
:102C9C000010024000080140000C0140FEE700BF9C
:102CAC00FEE700BFFEE700BFFEE700BFFEE700BF88
:102CBC00704700BF704700BF704700BF00F070B88E
:102CCC00014801F0E3B800BF48050020014801F0BD
:102CDC00DDB800BF8C050020014801F0D7B800BF5B
:102CEC00D0050020704700BF0C480D490D4A002349
:102CFC0002E0D458C4500433C4188C42F9D30A4AA5
:102D0C000A4C002301E013600432A242FBD3FFF70C
:102D1C00E9FF01F0E9F9FFF7A5FD7047000000207D
:102D2C003C040020284900083C040020240A002010
:102D3C00FEE7000038B54FF47A730D4A054611785A
:102D4C000C4AB3FBF1F31268B2FBF3F000F0AAF8F3
:102D5C0008B90F2D01D9012038BD04460246294679
:102D6C004FF0FF3000F052F8034B20461D6038BD89
:102D7C00040000200000002008000020074A08B5CD
:102D8C001368032043F01003136000F02DF80F209C
:102D9C00FFF7D0FFFFF772FE002008BD00200240B5
:102DAC00034A044B11681B780B441360704700BF37
:102DBC001C0A002004000020014B1868704700BF5B
:102DCC001C0A002038B50446FFF7F6FF631C0546C5
:102DDC0002D0044B1B781C44FFF7EEFF401BA042B3
:102DEC00FAD338BD040000204FF6FF0C064903024D
:102DFC00CA6803F4E06302EA0C02134343F0BF63B6
:102E0C0043F40033CB60704700ED00E01C4B00B581
:102E1C00DB68C3F30223C3F1070EBEF1040F03F109
:102E2C00040C28BF4FF0040EBCF1060F1BD94FF059
:102E3C00FF3C033B0CFA03FC22EA0C024FF0FF3C74
:102E4C000CFA0EFC21EA0C019940002841EA02011F
:102E5C000CDB090100F16040C9B200F5614080F85B
:102E6C0000135DF804FB00221346E7E7054B00F066
:102E7C000F000901C9B2034419765DF804FB00BFC9
:102E8C0000ED00E0FCEC00E0002807DB012300F083
:102E9C001F01034A40098B4042F82030704700BFA5
:102EAC0000E100E00138B0F1807F0FD24FF0E02359
:102EBC004FF0F00C0022072110B4054C586184F837
:102ECC0023C010469A6110BC1961704701207047ED
:102EDC0000ED00E090F821200346022A06D00421E0
:102EEC0000220120996383F82020704701214FF4C0
:102EFC00807C10B41A681C6C0020A140146824F06B
:102F0C000E041460146824F001041460DA6B516030
:102F1C00A3F820C010BC704790F821200346022A69
:102F2C0003D0042201209A637047026810B511681F
:102F3C001B4821F00E0111601168824221F0010141
:102F4C00116021D017498A421AD014318A421DD0FF
:102F5C0014318A421DD014318A421DD014318A4258
:102F6C000CBF4FF480124FF080724FF480700E4CF7
:102F7C00596B6260188429B118468847002010BD2F
:102F8C001022F2E7084610BD0122EEE74FF48072E2
:102F9C00EBE74FF48052E8E74FF48032E5E700BFEF
:102FAC00080002401C000240000002402DE9F04FD6
:102FBC000E6883B0002E00F0B58000227A4F924646
:102FCC0013467A4DDFF8E88106E0013336FA03F454
:102FDC0002F1040200F0A68001249C4034EA060EA3
:102FEC0004EA060CF1D14E68122E00F29E80122ECD
:102FFC001AD8DFE806F0A7B9B5CE1919191919199D
:10300C0019191919191919B1BC00DFF8A8E176457D
:10301C0000F098800EF5702E764500F09380AEF59A
:10302C00801E764500F08E80BCF1FF0F9CBF86465B
:10303C0093464FF00F0684BF00F1040EA2F1200B53
:10304C00DEF800400AFA0BF906FA0BFB24EA0B0433
:10305C0044EA0904CEF800404C6814F0805F79D043
:10306C00D7F818E003F003094EF0010EC7F818E08A
:10307C00D7F818E04FEA89090EF0010ECDF804E0FC
:10308C00DDF804E023F0030E0EF1804E0EF5803EC9
:10309C00DEF808B006FA09F62BEA0606DFF818B1D6
:1030AC00584513D00BF5806B58456BD0DFF80CB13D
:1030BC00584560D0DFF808B158450CBF4FF0030BF2
:1030CC004FF0040B0BFA09F946EA0906CEF8086032
:1030DC002E6814F4803F14BF46EA0C0626EA0C0650
:1030EC002E606E6814F4003F14BF46EA0C0626EA04
:1030FC000C066E60AE6814F4801F14BF46EA0C0612
:10310C0026EA0C06AE6014F4001FEC681FD044EAEB
:10311C000C04EC600E68013336FA03F402F104027D
:10312C007FF45AAF03B0BDE8F08F46450AD07FF666
:10313C006CAFDFF890E0764504D00EF5803E764516
:10314C007FF472AF8E683EBB4FF0040A6CE724EA42
:10315C000C04EC600E6838E7CC6804F1040A63E7F1
:10316C00CC6804F1080A5FE7D1F80CA05CE7CC68E6
:10317C0004F10C0A58E74FF0020B0BFA09F946EA76
:10318C000906A3E74FF0010B0BFA09F946EA090609
:10319C009CE74FF0000A47E7012E4FF0080A0CBFDE
:1031AC000461446140E700BF00100240000401408C
:1031BC000000221000001210000801400010014015
:1031CC00001401400000311002B90904016170477C
:1031DC00C36801EA030221EA030141EA02410161E9
:1031EC00704700BF002800F0B6812DE9F04103685C
:1031FC000446DD0782B035D59A494A6802F00C02C4
:10320C00042A00F0EF804A6802F00C02082A00F051
:10321C00E5806368B3F5803F10D0002B00F00C8183
:10322C00B3F5A02F00F082818E4B1A6822F4803205
:10323C001A601A6822F480221A6004E0894A136822
:10324C0043F480331360FFF7B7FD864E054605E067
:10325C00FFF7B2FD401B642800F2EA8033689A0342
:10326C00F6D523689F0728D57E4A516811F00C0FBC
:10327C0000F08D80516801F00C01082900F083806A
:10328C002369002B00F018810122774B754E1A60D0
:10329C00FFF792FD054605E0FFF78EFD401B022867
:1032AC0000F2C68033689807F6D53368626923F05C
:1032BC00F80343EAC203336023681A071FD45D077F
:1032CC0042D5684BDA69D0007DD50025674E33684E
:1032DC00D90540F19D80E368012B00F0FE80002BA6
:1032EC0000F0CA80052B5F4B1A6A00F02C8122F08B
:1032FC0001021A621A6A22F004021A62F2E0A3694D
:10330C00002B4FD00122584B564EC3F88024FFF7A8
:10331C0053FD054605E0FFF74FFD401B022800F268
:10332C008780736A9B07F6D5514B524A1B68A2FBE8
:10333C0003235B0A019300BF019B5A1E0192002BD1
:10334C00F9D123685D07BCD4E069C0B1454D6B6809
:10335C0003F00C03082B00F0D8800022424B02280B
:10336C001A6600F0FA80FFF727FD044604E0FFF729
:10337C0023FD001B02285BD82B689B01F7D400208F
:10338C0002B0BDE8F0815268D6033FF579AF354AFB
:10339C001268950730D52269012A2DD0012002B080
:1033AC00BDE8F081304A2F4EC2F88034FFF704FD9F
:1033BC00054604E0FFF700FD401B022838D8736A6D
:1033CC009F07F7D4BDE7DA69012542F08052DA6134
:1033DC00DB6903F080530093009B77E74A68D003C6
:1033EC007FF517AF1F4A126891037FF53BAF6268F8
:1033FC00002A7FF437AFD1E71A4960690A6822F0D6
:10340C00F80242EAC0020A601A077FF558AF76E765
:10341C00336843F480733360FFF7CEFC07463368A0
:10342C00DA053FF558AFFFF7C7FCC01B6428F6D987
:10343C00032002B0BDE8F0810A4D2B6823F48033E1
:10344C002B602B6823F480232B60FFF7B5FC06461A
:10345C0004E0FFF7B1FC801B6428E9D82B689B03C0
:10346C00F7D4FEE60010024000004242007000401B
:10347C0000000020D34D6210504E41F28838336A60
:10348C0023F001033362336A23F004033362FFF742
:10349C0093FC074604E0FFF78FFCC01B4045C7D8E0
:1034AC00336A9807F7D4002D3FF44EAF434AD369E3
:1034BC0023F08053D36147E7414A404E1360FFF736
:1034CC007BFC054604E0FFF777FC401B0228AFD8D5
:1034DC0033689907F7D42368EFE6384A136A43F048
:1034EC0001031362FFF768FC41F288380646334F3C
:1034FC0004E0FFF761FC801B404599D83B6A9B07B1
:10350C00F7D5002D3FF420AFD0E701283FF438AFBA
:10351C006B68226A03F4803191427FF43FAF606A9A
:10352C0003F47013181A18BF012029E703F1804324
:10353C00A3F53C331A6842F480221A601A6842F4EC
:10354C0080321A607FE642F004021A621A6A42F074
:10355C0001021A62C6E701207047FFF72DFC0646F0
:10356C0005E0FFF729FC801B02283FF661AF2B68B2
:10357C009901F6D4236AB3F5803F05D16A68A16836
:10358C0022F400320A436A6001200C4D616A6A68B9
:10359C000B4322F474120A4913436B600866FFF75D
:1035AC000BFC044605E0FFF707FC001B02283FF666
:1035BC003FAF2B689A01F6D5E1E600BF0010024040
:1035CC0000004242002800F0B1805E4A2DE9F04133
:1035DC001368044603F007038B420D4686B00DD2E8
:1035EC00136823F007030B431360136803F00703FE
:1035FC008B4203D0012006B0BDE8F08123689E0702
:10360C0014D5580704D550494A6842F4E0624A6020
:10361C00190704D54C494A6842F460524A604A4939
:10362C00A0684A6822F0F00202434A60DA0720D50B
:10363C006268454B012A1B687AD0022A73D09E0718
:10364C00D8D5414E41F28838736823F003031343F5
:10365C007360FFF7B1FB074604E0FFF7ADFBC01B3F
:10366C00404568D87368626803F00C03B3EB820FB3
:10367C00F3D1344A136803F00703AB4209D913683A
:10368C0023F007032B431360136803F00703AB42CB
:10369C00B0D12368580706D52B49E0684A6822F454
:1036AC00E06202434A60190707D5274A216953682B
:1036BC0023F4605343EAC103536040F20124234BCB
:1036CC0006AD0FCB05E90F001F49ADF804404A6861
:1036DC0002F00C03082B11D01D4B1B4A1D485268DD
:1036EC001D49C2F30312805C1C4AC3400868136076
:1036FC00FFF720FB002006B0BDE8F081C2F3834346
:10370C0018336B44D20313F8103C16D54A68104991
:10371C00C2F3404201FB03F318326A4412F8142C32
:10372C00B3FBF2F3D9E79F018BD463E70120704719
:10373C009B0386D45EE703205DE7094A02FB03F393
:10374C00CBE700BF002002400010024004490008F3
:10375C0000127A00EC48000808000020000000204D
:10376C0000093D00044B054A5B680549C3F302237D
:10377C00CB5C1068D840704700100240000000205D
:10378C00FC480008044B054A5B680549C3F3C22397
:10379C00CB5C1068D840704700100240000000203D
:1037AC00FC4800082DE9F0411D46164682B00C4637
:1037BC000746FFF701FB35442D1AFFF7FDFA80464B
:1037CC00264B1B68C3F3CB3305FB03F30193731C2C
:1037DC00396807D18B6834EA0303FBD0002002B0B0
:1037EC00BDE8F0818B6834EA0303F7D1FFF7E4FA04
:1037FC00A0EB0803AB4207D2019B002B019B08BF37
:10380C000025013B0193E2E7D7E900315A68B1F595
:10381C00827F22F0E0025A6014D0BA6AB2F5005FDF
:10382C0007D001220023032087F8512087F850305D
:10383C00D5E71A6822F400521A601A6842F4005252
:10384C001A60EEE7BA68B2F5004F02D0B2F5806F9D
:10385C00E3D11A6822F040021A60DEE70000002073
:10386C00002858D0F8B5436A0446002B44D00023F6
:10387C00C0E90433002394F85120A36202F0FF0145
:10388C00002A3FD09C46D4E9013202264FF0010EAB
:10389C00002502F4044203F482731343E268A06926
:1038AC0002F400621343226984F8516032401343DE
:1038BC006269216802EA0E021A43E369266A03F080
:1038CC00380700F40073134306F080060A683B4384
:1038DC003343000C43EA0C0300F0040022F04002D6
:1038EC000A600B604860CB69284623F40063CB6107
:1038FC00656584F851E0F8BD4268B2F5827FB9D0B5
:10390C00C361B7E7204684F85010FFF7D9F8A36AD3
:10391C0003F4005CB7E70120704700BF2DE9F041CC
:10392C001D4690F8503082B0012B74D00123044610
:10393C0080F8503088461746FFF73EFA94F851301D
:10394C000646012BD8B209D002200122002384F8AC
:10395C00512084F8503002B0BDE8F081B8F1000F6E
:10396C00F3D0002FF1D000230322A36384F851205D
:10397C00A38763656364E7862364E387A368206891
:10398C00B3F5004F0246C4F83080A78676D00368A2
:10399C005B0603D4036843F040030360E368B3F5AC
:1039AC00006F63683BD0002B00F08A80012F00F081
:1039BC008780E38E9BB2BBB1002D00F0BE806F1CE4
:1039CC0073D123689A68900740F18580226B127836
:1039DC001A73E18E236B013989B2E186E18E0133D2
:1039EC0089B223630029ECD133462A468021204634
:1039FC00FFF7D8FE002840F0B980A36833B92268DD
:103A0C000193D368019393680193019B606D003817
:103A1C0018BF012099E7022002B0BDE8F081002B0D
:103A2C0079D1414631F8023BC360E38E2163013BFF
:103A3C009BB2E386E38E9BB2002BD5D0002D00F019
:103A4C009180691C5ED183689A070FD5226B32F87E
:103A5C00023BC360E38E2263013B9BB2E386E38EA1
:103A6C009BB2002BC0D083689A07EFD4FFF7A4F960
:103A7C00E38E9BB2002BB7D02068E4E7036823F0F9
:103A8C0040030360036843F4804303607FE7226BC9
:103A9C0012781A73E38E226B013B01329BB2E386E0
:103AAC002263E38E9BB2002B9ED023689A68910709
:103ABC00EDD4FFF781F9831B9D42F2D8032044E734
:103ACC0098F800300373E38E226B013B01329BB2FA
:103ADC002263E3866DE7FFF76FF9E38E9BB2002B51
:103AEC007FF46FAF80E7216B31F8023BD360E38E3C
:103AFC002163013B9BB2E386E38E9BB2002B3FF428
:103B0C0073AF226893689B07EDD4FFF755F9831BBD
:103B1C009D42D3D9F0E7012F8CD182E7226B12782A
:103B2C001A73E38E226B013B9BB2E386E38E013268
:103B3C009BB22263002B3FF457AF23689A6892071D
:103B4C00ECD4FFF739F9B9E7226B32F8023BC360CA
:103B5C00E38E2263013B9BB2E386E38E9BB2002B88
:103B6C003FF442AF83689F07EBD5EDE72022636DEE
:103B7C0013436365626540E7002864D0F8B590F89C
:103B8C003D30044603F0FF02002B54D0D4E9022749
:103B9C002421206923680243606984F83D100243A4
:103BAC00D868A66920F40050D8601969274D21F413
:103BBC00405139431961D968AB4221F4B05121F01D
:103BCC000C0142EA0102DA605A6922F4407242EABC
:103BDC0006025A6134D0FFF7C5FD626800EB800322
:103BEC00920003EB8303B3FBF2F3642600254FF042
:103BFC00200C17482168A0FB0372520906FB1233F4
:103C0C001B013233A0FB0303120102EB53138B6035
:103C1C000B69284623F490430B614B6923F02A036C
:103C2C004B61CB6843F40053CB60256484F83DC0F2
:103C3C0084F83EC0F8BD80F83C20FEF77BFFA5E77A
:103C4C00FFF7A0FDC9E70120704700BF0038014015
:103C5C001F85EB512DE9F8431D4690F83D30202B84
:103C6C0068D18846002940D01746002A3DD090F8EC
:103C7C003C300446012B5DD0212301224FF000097A
:103C8C0080F83C20C0F8409080F83D30FFF794F865
:103C9C00A3680646B3F5805FA784E7844DD0002364
:103CAC0084F83C30E38C9BB2002B58D02368691C01
:103CBC001ED11A681206FCD5B8F1000F35D018F8D1
:103CCC00012B5A60E28C013A92B2E284E28C92B2FD
:103CDC00002AECD1681C36D11A685106FCD5202379
:103CEC0084F83D300020BDE8F8830120BDE8F8835E
:103CFC001A681706E0D42DB1FFF75EF8801B8542D9
:103D0C002368D4D220210025DA68032022F4D07253
:103D1C00DA605A6922F001025A6184F83D1084F885
:103D2C003C5084F83E10BDE8F88339F8022BC2F3FE
:103D3C000802C6E70220BDE8F8832369002BAED148
:103D4C00C1469846ABE71A685206C8D4002DD9D0A4
:103D5C00FFF732F8831B9D422368BBD2D2E723685E
:103D6C00B8E700BF90F83E30202B22D1F9B1F2B168
:103D7C0090F83C30012B1CD000234FF0220C8162B8
:103D8C000168036380F83C30C285036480F83EC050
:103D9C008285CA68184642F48072CA604B6943F047
:103DAC0001034B61CB6843F02003CB6070470120CB
:103DBC0070470220704700BF704700BF704700BFBC
:103DCC0008B50023406AC385C384FFF7F7FF08BD1D
:103DDC00704700BF8368B3F5805F3BD0826A002BCD
:103DEC0030D003685B6803F07F031370836A013380
:103DFC008362C38D013B9BB2C38553BB4FF0200C38
:103E0C00026800B5D16883B021F02001D160D1687F
:103E1C0021F48071D160516921F00101516180F868
:103E2C003EC0016B012920D10363D16821F0100140
:103E3C00D1601168C90622D4818DFFF7C9FF03B088
:103E4C005DF804FB0369002BCBD103685B6813702E
:103E5C00CCE7704703696BB90268836A5268C2F396
:103E6C00080223F8022B8362C3E7FEF773FC03B04E
:103E7C005DF804FB0368826A5B681370B6E7019314
:103E8C001368019353680193019BD5E730B5036820
:103E9C0004461A6883B012F00F0FD9685D694ED1D1
:103EAC00950602D58D0600F19080206B01280BD071
:103EBC00100602D50D0600F19280500602D54A0676
:103ECC0000F1AB8003B030BDD006F1D5CD06EFD5F7
:103EDC00002101911A6801925A680192019A5A695B
:103EEC0012F0400200F0D280A06B0268526892B2CD
:103EFC00002AE7D0A58D9542E4D9E2858269202A73
:103F0C0016D0DA6822F48072DA605A6922F0010263
:103F1C005A615A6922F040025A61202284F83E20EC
:103F2C002163DA6822F01002DA60FEF7D3FFA58D68
:103F3C00E18D2046691A89B2FFF74AFFC2E705F006
:103F4C00010501F490702843AFD0D00705D5C80502
:103F5C0003D5206C40F001002064500730D54DB1E2
:103F6C00206C40F002002064900703D5206C40F0D8
:103F7C0004002064100707D501F02000284303D06B
:103F8C00206C40F008002064206C00289AD0900629
:103F9C0009D58A0607D594F83E20222A03D120465B
:103FAC00FFF718FF23685A69256C02F0400205F0F0
:103FBC00080515433CD12046FFF700FF256481E737
:103FCC009007D7D5002DD1D1D4E790F83E30222BD5
:103FDC007FF478AF03B0BDE83040FFF7FBBE94F838
:103FEC003D20212A7FF46EAFA268B2F5805F6ED0BF
:103FFC00226A511C216212785A60E28C013A92B208
:10400C00E284002A7FF45EAFDA6822F08002DA6084
:10401C00DA6842F04002DA6054E72021DA68204680
:10402C0022F04002DA6084F83D10FFF7C5FE49E744
:10403C00DA6822F49072DA605A6922F001025A614D
:10404C00226B012A03D1DA6822F01002DA60002216
:10405C00202184F83E1022635A69550612D55A69FC
:10406C00A06B22F040025A6160B11E4B4363FEF715
:10407C0053FF00283FF426AFA06B436B03B0BDE8A1
:10408C00304018472046FFF799FE1BE7E08DE18D85
:10409C0080B289B200293FF415AFA18D081A81B204
:1040AC0000293FF40FAF2025D86820F49070D86019
:1040BC00586920F00100586184F83E502263DA6898
:1040CC00204622F01002DA60FFF782FEFAE622693F
:1040DC00002A8DD1226A32F8021BC1F30801596003
:1040EC0022628AE7CD3D000870B50D4E0D4D761B52
:1040FC00B61006D0002455F8043B01349847A6426C
:10410C00F9D1094E094D00F0BFFB761BB61006D055
:10411C00002455F8043B01349847A642F9D170BDF0
:10412C001C4900081C490008244900081C490008C7
:10413C00830730B548D0541E002A3FD00346CAB27C
:10414C0001E0013C3AD303F8012B9D07F9D1032C74
:10415C002DD9CDB245EA05250F2C45EA054536D9B2
:10416C00A4F1100222F00F0C03F1200EE6444FEAEA
:10417C00121C03F1100242E9045542E902551032B7
:10418C007245F8D10CF1010214F00C0F03EB021282
:10419C0004F00F0C13D0ACF1040323F0030304332D
:1041AC00134442F8045B9342FBD10CF003042CB192
:1041BC00CAB21C4403F8012B9C42FBD130BD6446AF
:1041CC001346002CF4D1F9E703461446BFE71A4610
:1041DC00A446E0E72DE9F04F012B1D4681460F4622
:1041EC009046ADF21C4D40F24781012300219C46C4
:1041FC004FF0FF341A4606E019460122A3EB040CDB
:10420C008B189D4210D908EB0400805C18F80360F1
:10421C008642F1D300F081804FF0010C62460C46CF
:10422C0061448B189D42EED8CDF808C04FF0010CBC
:10423C0000204FF0FF366146634606E01846012128
:10424C00A3EB060C43189D420FD908EB010218F89A
:10425C0003E0925D9645F1D865D04FF0010C6146B4
:10426C000646604443189D42EFD8013604F1010B19
:10427C00B34502D8B346CDF808C005AB0DF21442D5
:10428C0043F8045F9342FBD1002D00F0FA806C1EC2
:10429C0006AE08F1FF3208EB0400019612F8011F7C
:1042AC00D3432B444344904246F82130F6D1029E2E
:1042BC005A46404608EB060100F0C6F9002840F0CB
:1042CC0083800BF1FF3305938246AB1B06460393A9
:1042DC0009EB060E1EF80430019A52F8233043B352
:1042EC00BAF1000F04D0029A9342039A38BF1346D6
:1042FC004FF0000A1E447B1BB342E9D209EB0700C6
:10430C0045F4006100F068FA07447B1BB342DFD22E
:10431C0000200DF21C4DBDE8F08F94450ABF012220
:10432C00013261446CE761450ABF4018013101213B
:10433C0088E7D3455B4638BF5346A34214D2591E77
:10434C009A1941444A4402E00133A3420CD212F8B8
:10435C00010B11F801CF8445F6D0CBF101021644C4
:10436C004FF0000A1E44C6E7D345059B7DD90BEBE5
:10437C0006024A4408EB0B01CDF810B002E053459D
:10438C0016D0034612F8010D11F801CD03F1010B03
:10439C00844503F1FF30F2D05B46DDF810B00AF132
:1043AC00010A9A450BD8029BDDF80CA01E44A2E72B
:1043BC0053460AF1010A9A45DDF810B0F3D970465C
:1043CC000DF21C4DBDE8F08FA5EB0B035B4538BF20
:1043DC005B4600260BF1FF3202920133CBF1010256
:1043EC00039245F4006A049309EB060E1EF80430A0
:1043FC00019A52F823306BB11E447B1B9E42F3D9B9
:10440C0009EB0700514600F0E7F907447B1B9E427D
:10441C00EAD97DE7A34513D202990BEB06025B4662
:10442C004A44414402E00133A34209D212F8010B81
:10443C0011F801CF8445F6D0039A16441E44DCE7EC
:10444C00BBF1000F13D00BEB0601494408EB0B0238
:10445C0002E0013B43450AD0134611F8010D12F856
:10446C0001CD8445F5D0049BC6E75B4697E77046C3
:10447C000DF21C4DBDE8F08F01234FF0000B0293A1
:10448C00FBE606AB4FF0FF34019310E72DE9F0414A
:10449C000D460978044690B0002953D06A78002A5A
:1044AC0000F08380AB78002B50D0E878002800F027
:1044BC0083802B79002B57D0284600F05FF90646F5
:1044CC00204646F4007100F087F986425CD8FE2E37
:1044DC0000F28780801B271840226846711CFFF76A
:1044EC0027FE7EB16A1E5FFA86FC901912F8013F16
:1044FC0003F03F034033A91A6B446144824203F832
:10450C00401CF3D1013CA35D03F03F0340336B44EB
:10451C0013F8400C0444A74203D23AE04444A742A7
:10452C0037D314F806C020460CF03F0C0CF14003B6
:10453C000DEB030C324629461CF8408C00F084F835
:10454C000028EBD1204610B0BDE8F081007842EA9B
:10455C00014200E00C4640EA0343611CA0B19A42C0
:10456C006078F7D1013CEDE722786AB1296809BA85
:10457C0001E099421ED0204642EA032314F8012F91
:10458C00002AF6D1994215D00024204610B0BDE87F
:10459C00F081BB5DB819002BF6D04FF4006100F030
:1045AC001BF90744BC42ADD9EEE710B0BDE8F041B1
:1045BC0000F07EB8C41EC5E7120442EA016242EA6A
:1045CC0003230146207800E02C4640EA0102651CDA
:1045DC0011020028D8D0B3EB022F6078F4D1023C42
:1045EC00B0E7014633462A46204610B0BDE8F041FC
:1045FC00FFF7F0BD024B13B1024800F005B870474D
:10460C000000000021460008002301461A46184607
:10461C0000F0F4B838B5084B084D5B1B9C1007D064
:10462C00043B1D44013C55F804399847002CF9D142
:10463C00BDE8384000F02EB928490008244900088C
:10464C00704700BF704700BF032A10B516D940EA67
:10465C00010C1CF0030F04460B4622D119462046D0
:10466C00D1F800E0D0F800C00433F44504F10404A0
:10467C0017D1043A032A20461946EFD8541EA2B18A
:10468C0000F1FF3C013901E0C3180CD01CF801EF1C
:10469C0011F8012FA4EB0C039645F5D0AEEB0200FC
:1046AC0010BD541EECE7184610BD104610BD00BFDF
:1046BC0011F0FF01034644D0820732D110B50468D3
:1046CC0041EA012E4EEA0E4E8EEA0402A2F10133AB
:1046DC0023EA0203A4F1013222EA0402134313F089
:1046EC00803F0FD150F8044F84EA0E0CA4F1013333
:1046FC00ACF1013223EA040322EA0C02134313F057
:10470C00803FEFD0037823B936E010F8013F002B3F
:10471C0032D09942F9D110BD8A4211D09A0718466D
:10472C00CCD0184613F8012B002AF5D1104670474F
:10473C009907184607D0184602780133002AF7D19A
:10474C0070478207F7D10268A2F1013323EA020312
:10475C0013F0803F08D150F8042FA2F1013323EA63
:10476C00020313F0803FF6D00378002BE8D010F84A
:10477C00013F002BFBD17047184610BD20F0030100
:10478C0010F00300C0F1000051F8043B00F1040CE0
:10479C004FEACC0C6FF000021CBF22FA0CF2134350
:1047AC004FF0010C4CEA0C2C4CEA0C4CA3EB0C0219
:1047BC0022EA030212EACC1204BF51F8043B043083
:1047CC00F4D0C2F1000102EA0102B2FA82F2C2F1A3
:1047DC001F0200EBD200704771B1034600EB010CD5
:1047EC0001E0634506D01A46117801330029F8D14F
:1047FC00101A7047181A7047084670472DE9F04791
:10480C00DFF87CA00646DAF8000098460F46914681
:10481C00FFF716FF1B4B1B68D3F8484124B36568A0
:10482C001F2D26DC5EB96B1C0235DAF800006360C4
:10483C0044F82570FFF706FF0020BDE8F087012340
:10484C0004EB8501C1F88890D4F88821AB401A4359
:10485C00022EC4F88821C1F80881E4D1D4F88C2147
:10486C001343C4F88C31DEE703F5A674C3F8484152
:10487C00D5E7DAF80000FFF7E5FE4FF0FF30DCE794
:10488C003804002018490008F8B500BFF8BC08BC73
:10489C009E467047F8B500BFF8BC08BC9E467047F2
:1048AC00576F43616F00000041542B4349504D55E5
:1048BC00583D300D0A00000041542B4349504D55D2
:1048CC00583D310D0A00000041542B4349505345CB
:1048DC00525645523D312C383038300D0A0000000C
:1048EC000000000000000000010203040607080994
:1048FC000000000001020304020304050607080976
:10490C000A0B0C0D0E0F1010000000001000002000
:08491C0001460008310100080A
:044924000D01000879
:104928000024F40001000000100000000000000056
:1049380000000000FC02002064030020CC030020DB
:10494800000000000000000000000000000000005F
:10495800000000000000000000000000000000004F
:10496800000000000000000000000000000000003F
:10497800000000000000000000000000000000002F
:10498800000000000000000000000000000000001F
:10499800000000000000000000000000000000000F
:1049A80000000000000000000000000000000000FF
:1049B80000000000000000000000000000000000EF
:1049C80000000000000000000000000000000000DF
:1049D80000000000000000000100000000000000CE
:1049E8000E33CDAB34126DE6ECDE05000B00000093
:1049F80000000000000000000000000000000000AF
:104A0800000000000000000000000000000000009E
:104A1800000000000000000000000000000000008E
:104A2800000000000000000000000000000000007E
:0C4D58000000000000000000200A002005
:0400000508002CF5CE
:00000001FF
